:400000000080002011000000610F0000610F000008B5044B1A6803F53F5302331A6000F0B9FF00BFFA46004010B5054C237833B9044B13B10448AFF300800123237010BDDF
:400040008089FF1F0000000038820000084B10B51BB108480849AFF300800848036803B910BD074B002BFBD0BDE81040184700BF00000000388200008489FF1F0881FF1FCD
:400080000000000030B4002305E05C1C50F8245040F823502346541E9C42F6DC02F18042013A40F8221030BC704700BF30B4002306E050F8235051F82340A54204D10133EA
:4000C0009342F6DB012000E0002030BC704700BF10B582B00446084602F00EFA6B461B4A02EBC4021068516803C3BDF90230BDF900001946BDF9042002F0A0FFBDF9002050
:400100001046BDF90210BDF9063002F097FFBDF904201046BDF90210BDF9063002F08EFFBDF90630BDF900001946BDF9042002F085FF074B1A5D074B322000FB0230694630
:400140000E22012302F052FC02B010BDF0ABFF1F9C89FF1F3081FF1F38B50546144608466FF07F41FFF7B4FF28462146FFF7B0FF38BD00BF38B505460C46104602F0BCF944
:400180002846044901EBC4010E22012302F02EFC38BD00BFF0ABFF1F08B502F039FA064802F0AAF90548A021782202F007FC0322034B1A7008BD00BFF8FC03005C8200003E
:4001C00054ACFF1FF8B5074602F022FA0026012011E07B6B53F8264000252B4606E0084AD25C2178914200D101250133052BF6DD05B900200136BB6BB342EADCF8BD00BF0A
:400200009C89FF1F10B500240B4B1C600FE00B4B1B6853F82400FFF7D5FF38B1064B084A11681A688C541A6801321A600134054B1B689C42EBDB10BD0C81FF1F58ACFF1FE3
:4002400050ACFF1F4083000010B584B002F0E0F96FF07F4002F050F9524C02AB224652F8300F516803C3BDF90A30BDF908001946BDF90C2002F0E2FEBDF908201046BDF91E
:400280000A10BDF90E3002F0D9FEBDF90C201046BDF90A10BDF90E3002F0D0FEBDF90E30BDF908001946BDF90C2002F0C7FE3E4802A90E22012302F099FB02AA234653F896
:4002C000380F596803C2BDF90A30BDF908001946BDF90C2002F0B2FEBDF908201046BDF90A10BDF90E3002F0A9FEBDF90C201046BDF90A10BDF90E3002F0A0FEBDF90E308F
:40030000BDF908001946BDF90C2002F097FE274802A90E22012302F069FB002436E06B46204A02EBC4021068516803C3BDF90230BDF900001946BDF9042002F07FFEBDF978
:4003400000201046BDF90210BDF9063002F076FEBDF904201046BDF90210BDF9063002F06DFEBDF90630BDF900001946BDF9042002F064FE0E4B1A5D0E4B322000FB0230D5
:4003800069460E22012302F031FB0134052CC6DD0021094B19700846084AFFF7DDFE04B010BD00BFF0ABFF1F80820000948200009C89FF1F3081FF1F54ACFF1FE370F6001A
:4003C00070B485B00A23ADF80830ADF80A304FF49B73ADF80C302823ADF80E30144A02AB03CB9061D16100231A461CE03C21ADF80010C3EB031041004B31ADF802104FF456
:400400008271ADF804100133C3EB031041004B31ADF80610064D05EBC2066C4603CC45F8320071600132022AE0DD05B070BC704730ACFF1FF0B486B00A24ADF81040ADF887
:4004400012404FF49B75ADF814501E23ADF81630454B04AA03CA18635963ADF80840D222ADF80A20ADF80C50E622ADF80E2002AA03CA9863D9630024254623466FE0FBB929
:400480000A22ADF8002005EB4502C2EB021251001E31ADF802106722ADF804206A1C02EB4202C2EB021251001E31ADF806102E4E06EBC4076A4603CA46F83400796041E0B6
:4004C000012B1FD16722ADF8002005EB4502C2EB021251001E31ADF80210CE22ADF804206A1C02EB4202C2EB021251001E31ADF806101D4E06EBC4076A4603CA46F83400A1
:4005000079601FE0CE22ADF8002005EB4502C2EB021251001E31ADF802104FF49B72ADF804206A1C02EB4202C2EB021251001E31ADF806100C4E06EBC4076A4603CA46F822
:4005400034007960022B00D101355A1C074B83FB0213A3EBE27303EB4303D31A0134052C8DD906B0F0BC7047F0ABFF1F56555555084490FBF1F301FB130070472DE9F84F0A
:400580002C4B1B68002B53D02B4801F0B5FFDFF8BC802A4C404621460E22012302F026FA274DD5F800A0274FD7F800B0264EB068DFF880900138D9F80010FFF7D9FF1BF8BB
:4005C00000305AF8230021460E22012302F00EFA103C404621460E22012302F007FAD5F800A0D7F800B0B0680130D9F80010FFF7BFFF1BF800305AF8230021460E220123E4
:4006000002F0F4F96FF07F4001F076FF0834404621460E22012302F0E9F93A68B368D25C2B6853F8220021460E22012302F0DEF9BDE8F88F0C81FF1FD3D3D30040ACFF1F3D
:4006400058ACFF1F50ACFF1F9C89FF1FA482000010B582B00122384B1A70FFF7D3FD01F0D7FF364B1B6833B9354836490E22012302F0BCF95EE06FF07F4001F03DFF14207D
:4006800078210A2201F088FE4FF47F4001F034FF14207821052201F07FFE6FF07F4001F02BFF294C204603214FF48C72282302F0F1FD04F10C0003214FF48C72B42302F0A3
:4006C000E9FD224C6B46224652F8180F516803C31F4869460E22012302F088F96B46224652F8080F516803C3BDF90230BDF900001946BDF9042002F0A1FCBDF90020104635
:40070000BDF90210BDF9063002F098FCBDF904201046BDF90210BDF9063002F08FFCBDF90630BDF900001946BDF9042002F086FCFFF724FF02B010BD54ACFF1F0C81FF1F6E
:40074000B882000038ACFF1F3C82000030ACFF1FDC82000008B501F08BFF0E2001F0F4FEFFF768FEFFF72CFE01F052FF024801F0C5FEFFF76DFF08BDF08B000008B562B6AB
:4007800001F0D4F901F0FAF9002308E0104A1A44127EFF2A01D00F49CA540133DBB2052BF4D90D4B186807F0A3FC0C4B186000F055FB0B4B18600B4801F0BAF80A4801F092
:4007C0001BF90A4801F040F9FFF7C4FFFEE700BF3C8200009C89FF1F4083000050ACFF1F58ACFF1F690B0000C5080000F107000070B52B4B1B7843BB2A4DEC68601E072136
:40080000FFF7B6FEE86006280BD127480721274AFFF7B0FC204621466FF07F42FFF79CFC38E0062C0CD1204807216FF07F42FFF7A1FC1C4BD96808461D4AFFF78DFC29E048
:4008400021461B4AFFF788FC24E0022B16D1154C20693226174D06FB0050E1680022FFF789FC206901382721FFF782FE206106FB0050E168104AFFF77DFC0BE0012B09D1E8
:40088000084CA06801380D4B1968FFF771FEA060FFF774FE0A4801210822FFF7F3FB70BD54ACFF1F9C89FF1F94820000F8FC0300E370F6003081FF1F3399FF000C81FF1F52
:4008C000B089FF1F70B52B4B1B7843BB2A4DEC68601C0721FFF74CFEE86006280BD127480721274AFFF746FC204621466FF07F42FFF732FC38E0062C0CD1204807216FF00D
:400900007F42FFF737FC1C4BD96808461D4AFFF723FC29E021461B4AFFF71EFC24E0022B16D1154C20693226174D06FB0050E1680022FFF71FFC206901302721FFF718FEDD
:40094000206106FB0050E168104AFFF713FC0BE0012B09D1084CA06801300D4B1968FFF707FEA060FFF70AFE0A4800210822FFF789FB70BD54ACFF1F9C89FF1F94820000F2
:40098000F8FC0300E370F6003081FF1F3399FF000C81FF1FB089FF1F08B507F0DDF80022064B07F069FA0022054B07F03BF90022044B07F037F907F047FB08BD0000794019
:4009C00000004E4000408F40F8B50546002206E0134B03EB820300215963D9640132052AF6DD002619E00E4B995D6B6B53F82420127891420AD10A4F07EB860701227A6357
:400A000053F824305868FFF7C7FFF864013400E00024AB6BA342E6DC0136052EF8DDF8BD9C89FF1F08B510B900F05CFF08BD012803D1002000F08AFF08BD022803D1002003
:400A400000F090FF08BD032803D1002000F096FF08BD042803D1002000F09CFF08BD052802D1002000F0A2FF08BD00BF08B518B9012000F037FF08BD012803D1012000F07C
:400A800065FF08BD022803D1012000F06BFF08BD032803D1012000F071FF08BD042803D1012000F077FF08BD052802D1012000F07DFF08BD10B50F4B1B6853F82000FFF7E9
:400AC00083FF002411E00C4B03EB84035B6B5BB12046FFF7A7FF084B03EB8403D86C00F00DFD2046FFF7C2FF0134052CEBDDFFF7AFFD10BD58ACFF1F9C89FF1F10B504468B
:400B0000FFF790FF41F2707000F0F8FC2046FFF7ADFF10BD002303E00021034AD1540133052BF9DD704700BF9C89FF1F10B5FFF7F1FFFFF731FB002403E02046FFF772FF37
:400B40000134052CF9DD074800F0D8FC002403E02046FFF78BFF0134052CF9DDFFF774FB10BD00BFC0D4010010B52E482E490822FFF79CFAA0B12D4B1B783BB9FFF768FD64
:400B8000284802210822FFF77DFA10BD012B07D1FFF75AFB234802210822FFF773FA10BD224B1B78BBB9224BD868062808D1214807214FF47F42FFF7DDFAFFF7B7FF2BE0C6
:400BC0001D49FFF785FA1A4BDA689A5C1A610222164B1A7020E0022B15D10022134B1A70134CE068236923544FF47F41FFF770FA20461249062200F0C3FFE068FFF77EFF73
:400C0000FFF722FB08E0012B06D10D4B1A68084B9B68D05CFFF74EFF024802210822FFF731FA10BDB089FF1F1081FF1F54ACFF1F9C89FF1F948200003399FF005482000074
:400C400050ACFF1F024A136801331360704700BF5CACFF1F10B500F021FD002409E0204600F032FD20B92046064900F025FD02E00134042CF3D9042C02D9002000F03CFCE5
:400C800010BD00BF450C000008B5FFF7E3FF08BD08B504484FF4005101F0D0F8024801F081FC08BD088AFF1FFC83000008B500F089F808BD30B5A1B000241B941C941D949E
:400CC0001E941F9401A82146682207F03FFA154815492246234601F0D1FD05462046F0214FF4A07204F06EF92046F0214FF4A07204F080F904231D9328461BA902F0ADFE29
:400D00000A4B01930A4B02930A4B04930A4B06930A4B0893284601A9094A0A4B02F0BBFE21B030BDE8980000909800005D0D0000790D0000950D0000BD0D0000C10D00001B
:400D40000945000069410000012904D108B5FFF7ADFF002008BD4FF0FF30704710B50446002000F0F1FE204600F0A2FE00F094FE10F0010FFAD010BD10B50446012000F0C6
:400D8000E3FE204600F094FE00F086FE10F0010FFAD010BD70B506460D46012000F0D4FE002408E0305D00F083FE00F075FE10F0010FFAD00134AC42F4DB70BDFEE700BF9E
:400DC000FEE700BF08B50120FFF7C8FF0A2000F095FB3620FFF7C2FF8820FFF7CDFF3A20FFF7BCFF5520FFF7C7FF1120FFF7B6FF2920FFF7B3FFFA2000F080FB08BD00BF81
:400E000038B505460C46082007F072F90570446038BD00BF2DE9F8430446894690461F463C2007F065F90646214607F0FDF9B763B80007F05DF97063002409E0756B19F8EB
:400E4000040058F82410FFF7DBFF45F824000134BC42F3DB3046BDE8F88300BF30B595B01C2007F045F9054604238DF84C3032231293334813A912AA0123FFF7CBFF2860FC
:400E8000304C234633F8042BADF844200FAA93E8030082E803002C4811A90223FFF7BAFF6860A389ADF838300CAA04F1100393E8030082E8030025480EA90223FFF7AAFFB2
:400EC000A8600B238DF82C3064230A9320480BA90AAA0123FFF79EFFE860238BADF8243007AA04F11C0393E8030082E80300194809A90223FFF78EFF2861A38CADF8183031
:400F000004AA04F1280393E8030082E80300124806A90223FFF77EFF6861238EADF80C3001AA343494E8030082E803000B4803A90223FFF76FFFA861284615B030BD00BF8D
:400F40004483000004830000508300005C83000070830000808300008C8300009C830000FEE700BF08B5094B1A681044084BC31AB3F5805F02DC054B186005E007F08CF805
:400F80000C2303604FF0FF32104608BDD088FF1FD8ADFF1F08B5104E104D16E029686B68AC68002204E051F8040B43F8040B0432A242F8D1E868002203E0002143F8041BBA
:400FC00004328242F9D11035013E002EE6D107F069F8FFF7D3FBFEE701000000549E000008B5124A124B1A60124A136843F40073136000230AE0032B03D80F4A52F8231000
:4010000000E00E490E4A42F8231001332F2BF2D90C4B1A780C4B1A70094A0C4B1A6000F0B3F800220A4B1A6008BD00BF0004FA050CED00E014ED00E000000000610F000030
:401040000080FF1FBC7600400481FF1F08ED00E00081FF1FFEE700BFF0B40022174611E050F82760F3B226F0FF0608E001EB420511F812406D78A5550132013BDBB2002B86
:40108000F4D10137112FEBD9F0BC7047064B1B78DBB203F00701054A11701B09013213704422034B1A707047CF0100496E5800407658004008B50A46002107F047F808BD6B
:4010C00038B50323274A13801821023211704AF6D51102321180192502321570022102F27A22117008224FF040210A7001F500710B701D4B1B78DBB201F2A1410B701B4B71
:401100001A8041F25122023B1A8000240CE0184B1B7803F0010343EA440404F003044FF4F07000F0B5F8013D0DB1032CEFD115B90320FFF78FFF0F4B4FF480721A80072239
:401140001A7000220C490A704820023108701A700222033B1A70094A137843F00303137038BD00BF804000400801004922420040254200400440004006400040A243004051
:4011800008B506F0BDFF08BD38B572B62E4A137843F00403137000240CE02C4963001A1952000A4423445B00C8589188FFF782FF0134E4B2072CF0D94FF090402449FFF7C0
:4011C0004BFF244A137843F0020313701032137843F002031370204C237843F040032370A2F58632513A137843F0100313701B481B490A22FFF7C4FF1A481B490A22FFF797
:40120000BFFF1A481A490A22FFF7BAFF19481A490A22FFF7B5FF194A137843F008031370174D61232B70FFF74BFF81232B700122144B1A7000F036F9FFF728FF12482146FC
:401240000E22FFF79DFF38BDE8460040A88300004800004803500140A04300400051004018030048C0510040240300481051004030030048305100403C030048224300401A
:401280000048004004000840B0430040000000000230800803D000BF01380046FCD17047EFF3108072B6704780F31088704700BF10B500F011FA00F0BFFAD0B900F0FEFA2C
:4012C0000446072812D102E0012000F02DF90A4B1B7813F0020FF7D0074B1B7813F0020F04D0054B1B789B0800D1002400F0CAFA00E00424204610BD2247004010B500F021
:40130000EBF900F099FA10BB012000F077FA072818D11048022100F0F1F902280AD102E0012000F001F90C4B1B7813F0020FF7D0002409E0084B1B7813F0020FE9D04FF0D6
:40134000FF3401E04FF0FF3400F09CFA00E00424204610BD60ACFF1F2247004008B5FFF7A7FF034610B9FFF7C9FF0346184608BD10B5044600F0B0F944B100F05DFA38B9E9
:40138000044B1C6000F07EFA002010BD012010BD042010BD08AAFF1F2DE9F041441FE4B23A2C01D9002500E0012510F0800F00D00125412800D901253F2803D8B1F5807FDF
:4013C00006D808E0802900D90125102B02D102E0012500E0012502B90125002D50D1984616460F46044600F027FA002847D1204639463246434600F09BF9064607283AD11A
:4014000002E0012000F090F81F4B1B7813F0020FF7D01D4B1B7813F0020F06D01A4B1B789B0805D04FF0FF3603E04FF0FF3600E02E4606BB154B204639461A785B7800F08A
:40144000B7F9072804D0064615E0012000F06CF80D4B1B7813F0020FF7D00B4B1B7813F0020F06D0084B1B789B0804D04FF0FF3601E04FF0FF3600F005FA354600E00425D1
:401480002846BDE8F08100BF2247004060ACFF1F08B53F2801D9102301E04FF48073FFF77BFF08BD08B5FFF7FBFE0F4A137843F0080313701032137843F008031370C822D0
:4014C0000A4B1A700A4A137843F0100313701032137843F010031370064B1B7813F0200FFAD0FFF7E1FE08BDA043004001470040AC4300400047004001BE704710B504466F
:4015000005E0084B1868FFF7C3FEA4F50044B4F5004FF6D8034B586800FB04F0FFF7B8FE10BD00BFD488FF1F08B5034B1B7A03FB00F0FFF7ADFE08BDD488FF1F08B5FFF7C9
:40154000AFFE00BF00BF00BF00BF00BF00BF00BF00BF00BF00BF00BF00BF00BF00BF00BF00BF064A13889BB243F0040313801388BFF36F8FFFF798FE08BD00BF00480040E6
:4015800070B504460E46074B1D680F2802D90020FFF7B2FF04F00F0455F8240045F8246070BD00BF08ED00E0024A136843F002031360704710E000E008B5FFF7F5FF034AD1
:4015C000136843F00103136008BD00BF10E000E020F07F40014B1860704700BF14E000E0012805D1054A136843F0040313607047024A136823F004031360704710E000E08D
:40160000024B1868C0F30040704700BF10E000E010B5FFF7F5FF01280BD107E0054B03EB84035B6803B19847013400E00024042CF4D910BD0CAAFF1F0022014B1A60704778
:4016400018E000E008B5002305E00F4A02EB8302002151600133042BF7D90F200B49FFF78FFF0120FFF7BCFF094BDB680948A0FB03308009FFF7ACFFFFF7DEFF4FF40042EC
:40168000054B1A6008BD00BF0CAAFF1F11160000D488FF1FD34D621000E100E008B5054B9B6923B9FFF7CEFF0122024B9A61FFF783FF08BD0CAAFF1F024B03EB800358686A
:4016C000596070470CAAFF1F024B03EB80004068704700BF0CAAFF1F08B5FFF7E1FD064A137843F0080313701032137843F008031370FFF7D9FD08BDA043004070B5064619
:401700000D4600240CE00120FFF70EFF064B1B7813F0010FF7D0054B1B7833550134E4B2AC42F3D3204670BD224700402047004070B41D4C247814F0020F2CD01B4CB6251B
:401740002570D5252570022525700234247814F0020F22D1154C2070002404E0165D134D2E700134A4B29C42F8D3B3F5807F16D13F2816D800F5103001EB00214801002380
:4017800005E01A5CD2B209490A7001339BB21F2BF7D9072006E0042004E0092002E0072000E0072070BC7047224700402047004030B4104C247814F0020F15D00E4CB62557
:4017C0002570D8252570052525700234247814F0020F0BD1084C2070080A2070C9B2217022702370072002E0042000E0092030BC704700BF22470040204700400C4B1B78B7
:4018000013F0020F0FD00B4BB6221A70E1221A700E221A7002331B7813F0020F05D1054B187007207047042070470920704700BF224700402047004010B5FFF731FD0F4B41
:401840001B78A3B901220D4B1A700D4B1B6813F0010F0ED00A4A136823F00103136000BF00BF00BF0122054B5A60002402E0042400E00024FFF718FD204610BD28AAFF1F85
:401880000400084008B5FFF70BFD0A4B00221A705B68012B0AD1084A136843F00103136000BF00BF00BF0022024B5A60FFF7FCFC08BD00BF28AAFF1F04000840074B1B78E6
:4018C00013F0020F08D0064BB6221A70E0221A700D221A7007207047042070472247004020470040044A137803F0FB03800000F00400184310707047C0510040014B1B680B
:401900005864704708ED00E04001C0B2014B1870704700BF01E400E00222014B1A60704700E100E00222014B1A60704780E100E010B50446FFF7F6FF2046FFF7DFFF0720FE
:40194000FFF7E2FFFFF7E8FF10BD00BF044A137803F0FB03800000F0040018431070704710510040044A137803F0EF03000100F0100018431070704710510040044A1378EB
:4019800003F0DF03400100F0200018431070704710510040044A137803F0BF03800100F0400018431070704710510040044A137803F07F03C001C0B203431370704700BF9C
:4019C00010510040014B1B689864704708ED00E04001C0B2014B1870704700BF02E400E00422014B1A60704700E100E00422014B1A60704780E100E010B50446FFF7F6FFEA
:401A00002046FFF7DFFF0720FFF7E2FFFFF7E8FF10BD00BF014B1B681864704708ED00E04001C0B2014B1870704700BF00E400E00122014B1A60704700E100E00122014B9D
:401A40001A60704780E100E010B50446FFF7F6FF2046FFF7DFFF0720FFF7E2FFFFF7E8FF10BD00BF08B5FFF71BFC0A4A137843F020031370013A137843F010031370013A0D
:401A8000137843F010031370FFF70EFC00F068F808BD00BF96650040014B1878704700BF65650040014B1878704700BF64650040034B1B7813F0040FFAD0024B18707047BF
:401AC000656500404565004008B501E00A4B1B780A4B1B7813F0200FF8D1FFF7E1FB084B1A7842F001021A701A7802F0FE021A70FFF7DAFB08BD00BF5565004064650040B3
:401B00009565004008B50F22064B1A70FFF7DCFFFFF7C2FFFFF7C6FF0023034A1370013A137008BD866500408565004008B5054B1B7823B9FFF7E6FF0122024B1A70FFF74D
:401B400091FF08BD30AAFF1F044A137803F0F703C00000F0080018431070704730510040054A137843F0010313701032137843F001031370704700BFA2430040704700BF1B
:401B80002DE9F04FADF5097D8B18B3F5802F3ED20E4617468046FFF7E1FB6846FFF7E8FB4FEA164AC6F3072909EB0A2424024FF0000B5D4623E0B44207D3BD4205D218F85E
:401BC000051048AAD154013502E0217848AAD1540134013300E00023FF2BECD95FFA8AF01FFA89F148AAFFF753FC834609F10109B9F1FF0F03D90AF1010A4FF00009BD424B
:401C000002D2BBF1000FE6D0FFF798FC01E04FF0010BBBF1010F01D94FF0FF3B58460DF5097DBDE8F08F00BF074B10B55A685C6A01325A605A6B02EBC0014C60002102F8CB
:401C40003010586210BD00BF64ACFF1F10B50E4944680F2301EBC302126C94420A4A03D213F1FF33F6D210BD0F2B0CD81168091B11608168C06801B1486008B1016010BD3F
:401C800002EBC303596410BD64ACFF1FF8B5274E0546F368B26B013B0818134498420C4605D84B591BB943681D44FFF7CFFFB36B9C420BD954F8043C5B42E718E3582BB9A9
:401CC0007B6838461D443C46FFF7C0FF0F2306EBC302126C954203D213F1FF33F7D223E00F2B21D8083306EBC30251686019002284E82400A160246140F8045C04F10800B4
:401D000001B1486006EBC303A160E260586033680649EA1896F8293032602BB9CB689B1A8A68934288BF8B602846F8BD64ACFF1F2DE9F74F234F8346B846FE68BC6B013EBB
:401D4000264494E82800A3BB61198E4231D954F805A0BAF1000F2CD07B6B13F83A30012B27D1D8F82C302046D1F8049000930191FFF76CFF0199D8F83420086802EBC0022B
:401D8000546020464A4606F0C6F9009B04EB09019A4508BFD8F83430284604BF5B1BC8F83430FFF773FFBBF1000F01D0584505D24D462C44A642C4D8012000E0002003B0C8
:401DC000BDE8F08F64ACFF1F28B1034BDA6B026002B15060D863704764ACFF1F034B5B6B03EBC00040680830704700BF64ACFF1F054BDA690132DA615A6B12F83030013396
:401E000002F83030FFF7EABF64ACFF1F30B50368094953F8085C4C6B14F83530012B03D9CA690AB1013ACA61013B04F8353000230360184630BD00BF64ACFF1F024B21F0ED
:401E4000030118605960704734AAFF1F10B5044660B1074B5B6B03EBC00359684868FFF715FF2046BDE81040FFF7DEBE10BD00BF64ACFF1F2DE9F041224CE36A3BB9224B0C
:401E80009D685B680835B3FBF5F5023503E023691D1D05EBD305E80000F0C2F8804660B3616B226901EBC0035E68184B08361B68D2003046E76A9847226966631346C4F8A1
:401EC0002C80691E8B4205D2013306EBC30040F8043CF7E706EBC3064FF00008C6F80480636862629B1A2B446360256138463FB1FFF7ACFF4046BDE8F0810120BDE8F081AC
:401F0000BDE8F08164ACFF1F34AAFF1F0489FF1F70B5184A92F8283053BB012382F82830154B1021D960996811B95968890899605A2111621026002102EBC10006FA01F580
:401F4000013110290B4C0564F6D158681968A0F114030B440125022222616363A163E0605D6065626560FFF791FEFFF783FF256370BD00BF64ACFF1F34AAFF1F2DE9F04135
:401F80000746264E0337FFF7C3FF27F00307306C0437F26B874238BF0746144634B154F8043C9F4223682CD01C46F7E7F368B26B02EB030858F8045CC5EB08052B6833B145
:401FC0002046FFF7B5FE58F8045CC5EB08052B680BBB6B689F421EDC28461C1DFFF736FEF3686868DB1BF3607369E41B3B44C01B2C44736102D02946FFF748FE44F8047C67
:4020000009E00BB161685960616801B10B60A24201D12368F3632046BDE8F08164ACFF1F2DE9F8430446394EFFF772FF356C3368AC4224BF033424F003050C35AB42334CBC
:402040003ED3236B62689A420FD97368776A013B7360736B4FEAC70803EB080252687262012203F8372057B92AE0013B2363FFF701FF236B013323630028E6D020E00F235D
:4020800006EBC302126C95420CD213F1FF33F7D208E094682CB16268954214D9A268002AF7D101330F2B03D806EBC302526CF6E72846FFF73DFE0028E1D03846FFF7B4FDB6
:4020C0000020BDE8F883D4F80490336CC5EB09020C339A4238BF4D462046FFF7B7FD736B611998444D454FF00003C8F8044027606560A360246141F8045C03DAC5EB090022
:40210000FFF7C4FD3846BDE8F88300BF64ACFF1F08B1FFF785BF704773B50646FFF7F8FF054660B1FFF764FE064B02AC44F8040D1B683246002198472046FFF767FE284628
:4021400002B070BD0889FF1F4D4B2DE9F04F1A688BB0D169CC69A389984208DBE589854205D32568C31A06954FF0FF3613E0A368002B7CD01D88A84279DB5E88864276D3FA
:402180005B68401B666880B203EB8005069633F92030B5F90260581C099368D091F818B0A17CB2F92A900BFB01F34846B2F92270B2F92480079394F810A002F0EFF9079BE5
:4021C000089018462E4D099B2968CA69896B0591069900FB03100490A37C4146039301230293D37E38460193937E524600935B4602F074FB731C1AD049F0020002F0CEF938
:402200002A680699D369926B38460592079A02FB06160496A27C4146039201220292DA7E01929B7E524600935B4602F057FB2B68DB695A7E1B7E9A4215D9B9F1020F12D017
:4022400089F0040002F0AAF90D4B1B68D869437E827E017EC07E434400FB01810AFB0272384602F023FA9DF8200002F097F9044B617C1A68538C0B4453840BB0BDE8F08FDF
:40228000E488FF1F044B1B68DB69DB6909B11A7C0A60587C704700BFE488FF1F02230B807047C3699A89914202DBDA898A420FD2986880B1038899420CD342888A4209D34E
:4022C000C91A436833F82100C043C0F3C030704701207047002070472DE9F04F40F2C32656434FF47A7396FBF3F6022392FBF3F31446804602FB0233264F85B001933B687A
:4023000002441B6E001B1B6801258946984708EB0503029308F1FF3301360393B54235DC04FB04F305FB0533019A9A4218DAB44215DD029B04EB0901C5EB030A039B5046C6
:4023400003EB050B3B685A461B6E1B6898473B685A461B6EC4EB09011B6850469847013C3B68C4EB080A1B6E04EB080B09EB05011B685A46504698473B68C5EB09011B6E10
:402380005A461B68504698470135C7E705B0BDE8F08F00BFE488FF1F0D4B2DE9F0411B68044600200D461646DF6CD3F8508003F00DFB50B145443C44324629462046FFF716
:4023C0008BFF03F041FA0028F6D1BDE8F08100BFE488FF1FC3B2CAB29A1A92B210B514B2002CBCBF524214B204FB04F2C0F30723C1F307241B1B9BB21CB2090C002CC1EB73
:402400001041B8BF5B4289B208B2B8BF1CB204FB04230028BCBF494208B280B200FB003010BD10B538B309B30AB3B2F90040B1F90030A342A8BF2346B2F902400380B1F908
:402440000230A342A8BF2346B2F904404380B1F90430B2F90620A342B8BF23468380B1F906309342B8BF1346C38010BD11460B6803604B68436010BD68B1038889B20B4439
:402480000380838892B219444388818013444380C3881A44C2807047024B1B685884998400207047E488FF1FB0F90220B1F906309A4214DCB1F90220B0F906309A420EDC53
:4024C000B0F90020B1F904309A4208DCB0F90400B1F900308342CCBF0020012070470020704708B502F036FD02F09CFDBDE8084003F0ECBA02F0AEBB02F0B2BB034B1B6851
:40250000DA6900B1D8611046704700BFE488FF1F094B10B41880094B0A461980084B1B68597C084B53F82130D9680C6A01461846234610BC184700BF4CADFF1F3CADFF1FC4
:40254000E488FF1F74ADFF1F034B1B68B3F92C2098851046704700BFE488FF1F70B50B4D00240B4E45F8044B3368702221462846984733680422214606489847064B1D60CC
:40258000064B1C70064B1C6070BD00BF44AAFF1F0889FF1F74ADFF1FE488FF1F5CADFF1F38ADFF1F014BD860704700BFE488FF1F2DE9F3410446042016461F460D4601F096
:4025C000EDFF124B80461B686846DA6C1B6D14441D4416441F44ADF80040ADF80460ADF80250ADF8067003F0F1F928B9404601F0D5FF02B0BDE8F0813B46324629462046B8
:4026000002F054F803F020F9EFE700BFE488FF1F002110B50846FFF73FFFBDE8104043F6FF7302491A460846FFF7C2BF01C0FFFF024BDA6FD8674260704700BF44AAFF1F01
:4026400010B5094C23686BB901232360FEF720FBFEF730FB2046BDE81040044B40F8803FFFF7E6BF10BD00BF44AAFF1F5D25000070B5FFF7E5FF2F4B2E222F4C2F4D1A701A
:40268000FEF702FB2E4B04F10C0123672B681A1DDA6303F10802A2615A7C9B631B64294B53F82200C3681B6B9847274B6366EB6823622B680833A36101232377E37703F067
:4026C000FFFA032384F86830204BE064606F6363A36302F0BFFAA86802F0C2FA1C4A1D4B1A6002F01BFA054602F0CAFB064602F0CDFB06B140B902F0B7FB064602F0B7FB59
:402700000146304602F0B6FB00210846FFF700FF03F02EFAA36F43B1A36F33B11B6803B19847A36F5B68A367F6E70B4B01221A70284670BD2DADFF1F44AAFF1FE488FF1FC0
:402740002898000074ADFF1F20980000785634FF809800006CADFF1F54ADFF1F002809DC054B53F8200020B1C3681B681BB10068F9E770470020704774ADFF1FFFF724BB36
:40278000F8B51C1E06460D46174601DD0020F8BD1C20FFF7F3FB0028F8D00DB1056109E0084B53F8241029B10B680BB11946FBE70B6903610023836084618782C6600360F5
:4027C0004360F8BD74ADFF1F81690A4A52F821309842036804D142F821300BB100225A60426802B11360036803B15A60002303604360704774ADFF1F30B508B9012030BDB0
:402800008469002CFADC1B4B1A789442A4BF01221A70194A52F8243015461BB942F82400184630BD5A680AB11346FBE7C2681268D9680968914203DD1B68002BF8D1DDE7F6
:4028400009D1818A012906D1196821B10B46C96809688A42F8DD5A6812B11060426001E045F824005860984208BF00230360002030BD00BF25ADFF1F74ADFF1F38B51D4688
:40288000FFF77EFF044648B1FFF7B6FFE3681B6823B9034B16351B6843F82540204638BDE488FF1F2DE9F04F054685B000287FD003F03AFC404C07462368A146B3F922805E
:4028C00003F01AFC226886B2938C9B1B93842B78002B61D047F6FF71284603F08DFC01468246284603F0B2FC2268938D03F00303012B04D0022B04D190FBF3F302E003462C
:4029000000E00023518C1FFA80FBCB1A9BB219B25184ADF80810B2F924200BF1FF310B44ADF80C30ADF80A20BBB2013A1A44ADF80E20514602AA2846019303F0B7FC22682C
:40294000BDF80A1028469184514600F0F9FC2A5C05EB000E0A2A019B01D00D2A12D12268918D01F00301013901298ABF118CA2F8228051849EF800100A290AD1918C0B4432
:40298000938406E0BDF80800D9F800308344A3F822B09EF8003043B923689A8C16449A8D9E8422F003029A8502E00EF101058EE705B0BDE8F08F00BFE488FF1F024B1B688E
:4029C00059849A84FFF76EBFE488FF1FF8B505460E46174600243A463146284603F082FB10B105440134F6E72046F8BD2DE9F04F99468BB000230C4602920893099307465A
:402A0000002800F0E080B1F90430B1F900A00193CAEB030301330093B1F90260B1F9065003F082FB029B834613F00C081BD04A4600993846FFF7CAFFB8F1080F05D0B8F158
:402A40000C0F07D0B8F1040F0DD16E1C00FB1B6006B208E0AB1B013300FB1B30022390FBF3F0064436B2204603F092F9804688B1BDF804300246214606A8ADF818A0ADF8FA
:402A80001A60ADF81C30ADF81E5003F01EFA06A803F07EF93D461FFA8BF30393013B04934A460099284603F0EBFABDF804201FFA86FBADF82420049A01465A4405902846A1
:402AC000ADF82260ADF820A0ADF8262003F0BEFB029B03F00306012E059B11D0022E02D09EB922880FE0B4F90010B4F90420521A121A013292FBF6F00844ADF8200004E0B7
:402B0000A2880132121AADF82020194608AA284603F0CCFB2D4B1B7873B32D4B1B685B8D9A0729D4BD420CD1BDF92230B4F902108B4206DD013BB4F90420B4F90000FFF739
:402B400037FDBDF92020B4F90000824206DDBDF92630013ABDF92210FFF72AFD1C4BB4F904201B68B3F92200904205DCBDF92630BDF92210FFF71CFD28464A46009903F0C2
:402B8000B1FA039B054403EB0B062B7836B2002B86D10E4B1B789BB10D4B1B685B8D9B070ED4AF420CD0BDF92610B4F90630994206DAB4F904200131B4F90000FFF7F8FC07
:402BC000404603F0E5F80BB0BDE8F08FD4AAFF1FE488FF1F204B1B689B7E013B032B37D8DFE803F0020E1C261C4B06300340002BBEBF03F1FF3363F00F0301330B2B09E088
:402C0000174B0340002BBEBF03F1FF3363F003030133012BCCBF002001207047142390FBF3F203FB12000B2814DD103801280BE0182390FBF3F203FB12000B280ADD20F0C9
:402C40000400A0F11003012B8CBF0020012070470020704701207047E488FF1F0F00008003000080C0F30B00B0F5006FC6BFA0F5006001210021B0F5806FC8BFC0F5006033
:402C8000821110B500F03F000C4CC0F1400080B234F81230402800FB03F308D0102A1FBF013234F81220C0F1400000FB023303F12000800901B1404210BD00BF3C98000078
:402CC00000F58060FFF7CEBF2DE9F74F141A5D1A54EA050706468846DDF8309004D103B0BDE8F04F03F036BB85EAE57084EAE471A0EBE570A1EBE47188420ADD21462C4660
:402D00000D4611461A460B46314601274646884600E0002784EAE471A1EBE471A1421FBF984633466D4216461BBF64421A4601234FF0FF33002DD9F800B0DFF834A138D199
:402D4000DAF80030C7B19B7E8BB93146404603B0BDE8F04F01F080BCFFF73CFF30B9DAF8003071191B6E40465B6898470135A54205EB0B00F0DD18E0997E91B94146304629
:402D80001B6E1B6803B0BDE8F04F1847FFF722FF30B9DAF8003041461B6EF0195B6898470137A7420BEB0700F0DD0138C9F800005BE04FF0020294FBF2F2DAF80010B8BF25
:402DC0005242897EB1B99146B346C6EB0B039C424BDB99FBF4F0DAF8003040441B6E5B6817B90146584600E0594698470BF1010BA944EAE7591C08BF04EB0B01B34608BF21
:402E0000C9F800100092C6EB0B029442D9F8000021DB1844C9F800000193FFF7DBFE019B98B9009A92FBF4F0404437B9DAF800200146126E5846526805E05946DAF800205B
:402E40000193126E52689047019B009A0BF1010B2A440092D7E75A1C04BF2418C9F80040D9F80020D31AC9F8003003B0BDE8F08FE488FF1F2DE9F04FDFF8A49187B0D9F8A2
:402E800000400746247E8846012C15461E4604D1109C0094FFF718FFBCE0821ACB1A52EA030100F0B780002AB6BF012100215242002BBCBF5B4241F002019A42BEBF1046E7
:402EC0001A4603464FEA620000EB832393FBF2F3524A4FEAA31E02EB4E00C3F38303B0F92200C3F1100CB8BF41F004010CFB00F0BCF1100F1CBF02EB4E02B2F9242004F176
:402F0000FF3418BF03FB02001023083090FBF3F04B0748BFC0F58060CA0748BFC0F500608B0748BFC0F5805000F5806B5846FFF7C7FE00FB04FA5846FFF794FE6043BAF10F
:402F4000000FBBBFCAF500739B120AF500735B42A8BF9B120028BBBFC0F50070801200F500704042A8BF8012002BDBBF022293FBF2F1591C03F1FF33D2BF93FBF2F349103B
:402F80005B100028DFBF022490FBF4F200F1FF3090FBF4F0C8BF421C1FFA87FE89B20EEB0104C4BF52104010ADF8084092B21FFA88F480B204EB020C241A9BB2ADF80E4056
:402FC000ACB2C3EB0E0EE31AADF81030B3B2181A1A4421440023ADF81200ADF81410ADF8162004211A4602A8ADF80AC0ADF80CE000F066F8D9F800305B7E1BB941463846BF
:4030000003F0A8F9D9F800305B7E1BB93146284603F0A0F907B0BDE8F08F00BF3C980000E488FF1F30B585B004AC002544F8045D0094FFF71FFF05B030BD00002DE9F843BE
:403040001E460E4B80461B6800200C461546DF6CD3F8509002F0BAFC68B14E443D444C4433462A46214607EB0800FFF7DBFF02F0EBFB0028F4D1BDE8F88300BFE488FF1FDB
:403080000E4970B50B680B2B16DC002B01DC00220DE01A460C1D04EB430434F9025D561E854204DB65803246002EF6D1EFE701EB4202013390800B6070BD00BFD8AAFF1FEA
:4030C0002DE9F74F0546904643F6FF746D4F009301910023019A93420BDA05EB8302B2F9022001339442A8BF14469742B8BF1746F0E7654E33685B696BB1B3F90620009924
:40310000B3F90230521A9742A3EB0103A8BF17469C42B8BF1C46009B1C44009BC3EB04094F45C0F2AB80594A002313609A46019B03F1FF3B019B9A455ADADA4505EB8A036F
:40314000B4BF0AF1010C4FF0000CB3F902304FEA8C0C05EB0C024B45B2F9021036D1494502D0534600201AE035F92AE035F90C003368C64440441B6E8645B8BF02461B6844
:40318000B9BF21467046724621461DE053B1013B05EB8302B2F902204A4505D101308345F4DC22E05B46F3E7C9EB0202C9EB010192EA010F35F92A004FD400EB0802214660
:4031C000104633681B6E1B6898470EE049450CD002DB4B4544DD02E04B4506DB01E0494503DC8B4242DC4B4520DD0AF1010AA1E74FF000094846CA46244B1B689A4513DAC2
:40320000234B33F91AB0B9F1000F07D0336808EB0B021B6E21461B684044984789F001090AF1010A5846E7E7013476E74945DCDB35F92AE035F90C20C3EB0900CEEB020257
:403240004243CB1A002ADBBF581000F1FF3002EB6302121A92FBF3F07044FFF711FFC4E78B42E5DD4945C0DC4B45BEDB184635F90CE00B4635F92A200146DDE703B0BDE8BF
:40328000F08F00BF01C0FFFFE488FF1FD8AAFF1FDCAAFF1F2DE9F04F194E8946316885B08046002014461D46D1F84CB0D1F850A002F08CFB374600B35544DFF848A05C4428
:4032C0003B6811215B7C03A85AF823300393DB685B6A9847064630B1009523464A4641460398B04705E02B46224649464046FFF7E7FE02F0A9FA0028E2D105B0BDE8F08F8A
:40330000E488FF1F74ADFF1F024B1A6802B9186000F032B8F4AAFF1FF8B5084E0468336805461B6820469847336807465B6820469847204428603846F8BD00BF6CADFF1F0A
:40334000F8B506460D46064F00243DB13B6830465B689847013D06440444F6E72046F8BD6CADFF1F0078704701207047012070470170012070470000024B1B6803B11847D5
:40338000704700BF54ABFF1F074A00F01F01C0F3C423D35C525CC0F3451003EB0243034A105C03EB00207047709C0000309C0000074AC1B2C0F30743D35C525CC0F3072099
:4033C00003EBC223034A105C03EB4010704700BF309A0000309900004FF6FF7070470000F0B5DFF854E00646DEF800E00D4614461F46BEF1000F03D0F446BDE8F040604784
:403400000B490C4856F8042B013CC2F307435FFA82FECB5C11F80EE0C2F30722825C03EBCE2303EB42132B803D44EBD1F0BD00BF309A0000309900005CABFF1FF0B5154E42
:40344000864676680F4614461D461EB1B446BDE8F0406047501E02F1804103FB00E0013907EB81010C4E0D4F0288013C02F01F0316F803E04FEAD223F35CC2F34512BA5C7C
:4034800003EB0E4303EB022341F80439A0EB0500EAD1F0BD5CABFF1F709C0000309C0000104670474068801A01387047084670470068401A0138704710B48468D4F8F840A5
:4034C000A44610BC60478368D3F8F4301847F7B5164604460D468768FFF7F5FF0190019ABB6A2946534020463246FFF7E5FF03B0F0BD13B584680092D4F8F040A04702B072
:4035000010BD13B584680093D4F8F0400B46A04702B010BD10B48468D4F8F040A44610BC604730B48468D4F8EC40A44630BC60477047000073B5079E84680C4D76B12868F6
:4035400088B906980090D4F8A8602046B047D4F8A8302B60064BC4F8A83004E02B6813B1C4F8A8302E6002B070BD00BF64ABFF1F31350000026CD0F8DC3090691847026C01
:40358000D0F8E030906918472DE9F34791468A4698460A9C85680B9F00942846D5F8A860B0473946C9EB0404CAEB0806621C286C06FB0222D5F8E430806902B0BDE8F0476E
:4035C00018472DE9F34791468A4698460A9C85680B9F00942846D5F8A860B0473946C9EB0404CAEB0806621C286C06FB0222D5F8E830806902B0BDE8F04718470139172922
:4036000028D8DFE801F01427272727272727270E101219290C272727272727231E250F4870470F4870470F4870470F48704703689B68D3F80401704703689B68D3F8FC0056
:40364000704703689B68D3F800017047074870470748704700207047064870472F3A00001B3A0000073A0000AD3900001139000035350000453A0000013980680D2923D84F
:40368000DFE801F0090B0D0F2222221125070713181D01207047006870474068704780687047C0687047806B704788B1406B00F00100704760B1406BC0F34000704738B1DF
:4036C000406BC0F3800070474FF0FF30704700207047836801290CBF586C00207047826800230B804B801368013B8B805368013BCB807047F0B5104C91B06D4626460746F2
:403700000FCE0FC596E80F00203485E80F000FCC08AD0FC594E80F0085E80F007B6B10AA02EB830353F8402C53F8203CC7F80821C7F80C3111B0F0BDA898000007B5806968
:403740008DE806006A460321FDF7FEFA03B05DF804FB0846704708467047084670471046704710467047104670474068801A013870470068401A013870470068401A0138F2
:4037800070474068801A013870474068801A013870470068401A013870472DE9F34184689846E38C0E469B0717462ED5D4F80831204698470546D4F80C313A463146204668
:4037C0009847A36922699D42D4BF002301239542B8BF43F00103626906469042B8BF43F0010313B9E36998420ADD62682368013A00920022D4F8A870013B11462046B84785
:40380000D4F8AC303246294601E0D4F8AC302046984741462046D4F8A43002B0BDE8F0411847F7B584680E46E38C17469B0743D5D4F8083120469847D4F80C313146054630
:403840003A4620469847D4F8983006461BB10022012120469847A36922699D42D4BF002301239542B8BF43F0010362699642B8BF43F0010313B9E3699E420ADD62682368F4
:40388000013A00920022D4F8A870013B11462046B8472946D4F8AC30324620469847D4F8A03020469847D4F8983005467BB101220021204698470AE0D4F8AC30204698471D
:4038C0002046D4F8A03003B0BDE8F0401847284603B0F0BD38B5856804469DB94FF4BE70FEF74CFB084B4FF4BE721B68A06029469847A3680222DA8401221A62034A1C645A
:40390000C3F8102138BD00BF0889FF1FF536000070B506460D461446FFF7DCFFB368002B3BD0262D02D0272D16D070BD9A6B102A02D0122A08D070BD184AC3F8DC40C3F8FB
:40394000B820C3F8B42070BD154AC3F8E040C3F8BC20C3F8C02070BD9A6B102A02D0122A0ED070BD3CB10F4AC3F8E440C3F8CC20C3F8C82070BDC3F8CC40C3F8C84070BD6F
:403980003CB1094AC3F8E840C3F8D020C3F8D42070BDC3F8D040C3F8D44070BD753500007F35000089350000C335000070B50646FFF790FF4FF4FA70B568FEF7DFFAA866E6
:4039C000B0FA80F4A86B2B680730C0105843FEF7D5FA002200284FF00101E866B0694FEA541408BF0124FDF7AFF9D5F810310443284698472846D5F8B0309847002CD4BF27
:403A00000020012070BD70B506460D461446FFF761FFB3681D605C6070BD70B506460D461446FFF757FFB3689D60DC6070BD10B50446FFF74FFFA06900220621BDE810409E
:403A4000FDF782B910B50446FFF744FFA06900220521BDE81040FDF777B938B50C460546FFF738FF2268AB68DA6262681A63A2685A63520707D51A68596883E806009A68DC
:403A8000D968DA609960A2899A84226912B122EAE2721A6238BD2DE9F041044688461E461746FFF717FFA5686822414605F58A7004F026FB2046B8472046B04723699B6886
:403AC0009847A862BDE8F0810B0A80F8713080F87210D0F820310221713018472DE9F04115460446806E0E460021A5B1034636F8022B0131170AFA2903F8027B427007D1A2
:403B0000D4F820314FF4FA71A06E9847A36E0021013D1846E9E731B1D4F82031A06E4900BDE8F0411847BDE8F08108B5D0F8B830984708BD89B2FFF7C7BF00002DE9F04F71
:403B40003E4E82468568306885B0007C884610F0010F14469946A3EB01003DD043000393471C0E9B9C4266DCD5F8CCB0EE6EBBF1000F01D1C34607E08DE850004B46224623
:403B800041465046D8470DE0CB450ADC5946D5F8F4302246504698470BF1010B26F8020BF2E7EE6E039AB31E1644B34205D0A96A33F8022F4A401A80F7E7009422464B4681
:403BC00041462846D5F8A860B0473A46E96E2846FFF784FF0134C4E70E9FBC1A671C00FB07770E980090D5F8A8402846A0473368AE6EDB6B1C680123C4F3072906EB030A1D
:403C0000E4B2C7B1B846F92F28BF4FF0F9084FEA48013BB9D5F8203150469847C8EB07070023EEE7334672189342F3D083F8019003F8024FF8E705B0BDE8F08FE488FF1F32
:403C40002DE9F04F8FB00393836805900993199B0691082B08920CD8199A4FF48B73D340DB0706D5984B1B681B7C03F00303022B10D0069B1C9A18989918089A039B0244FD
:403C8000013A0092099ACB18D2F8A840013B089A0998A047039B1C9A013B0D93069B089F13440493049A0D9B13440C93089B189AFB1A9A4240F35382199B013B0F2B00F28D
:403CC0004882DFE813F01000C10046024801460246024602D80146024602460246024602460246024102059B9C681D9B5B680B93754B1B681B7C03F00303022B22D0032B05
:403D000076D0012B74D01D9B039E1C9DDDF86CB0B3F80090BDF82CA04FF080089BF8002048FA05F31A4214BF5146494601352046FFF7CAFE082D04BF0BF1010B0025013E47
:403D4000ECD106E21B9B00250A932B46DDF810B0D4F86CA0DDF87080CDF81CB00A9A92F80090802242FA08F219EA02090DD01BB9D4F86CA0DDF81CB0BDF82C300135AAF83B
:403D800000300AF1020A012313E0012B10D1079B0097013B3A4659462046D4F8A860B0472A46E16E2046FFF799FE4D464B4600E04B46079A08F101080132B8F1080F07926D
:403DC00008BF0A9A039904BF01320A92049A08BF4FF000080A4407999142BFD1002D00F0B8810097D4F8A8600C9B3A465946A5E1039B049A1C9DDDF86C80079303EB020AD6
:403E00004FF0800B079B98F80020C3EB0A094BFA05F31A420DD0D4F8F4303A46494605989847A36A3A46434049460598D4F8F860B0470135079B082D04BF08F10108002566
:403E4000013B0793DED184E1059B9C681D9B002B00F07F811B9B93F800B01B4B1B681B7C13F003030FD0022B40F07381049B00260A931B9BD4F86CA0DDF870900B93DDF8FF
:403E80001080324645E01C9D039EDDF86C904FF0C008C5F103035A00C2F1060348FA03F303EA0B03D3401D9A013532F823102046FFF70AFE042D02BF99F801B0002509F18A
:403EC0000109013EE5D144E1E488FF1F1AB9D4F86CA0CDF82880079A1D9B013653F822300AF1020A2AF8023C012209F10109B9F1040F08F1010806D10B9B4FF0000993F832
:403F000001B001330B93049B03990B44984500F0A680C9F103056D00C5F10603C02141FA03F303EA0B03EB400793CFD1012A10D1009708F1FF333A460A992046D4F8A85006
:403F4000A8473246E16E2046FFF7C8FD079E3246CBE7079AC9E7059B9C681D9B002B00F0F8801B9B93F800B07E4B1B681B7C13F003030FD0022B40F0EC80049B00260A9374
:403F80001B9BD4F86CA0DDF870900B93DDF81080324642E01C9D039EDDF86C904FF0F008C5F101039A00C2F1040348FA03F303EA0B03D3401D9A013532F823102046FFF7A5
:403FC00083FD022D02BF99F801B0002509F10109013EE5D1BDE01AB9D4F86CA0CDF82880079A1D9B013653F822300AF1020A2AF8023C012209F10109B9F1020F08F10108C4
:4040000006D10B9B4FF0000993F801B001330B93039B04990B44984521D0C9F10105AD00C5F10403F02141FA03F303EA0B03EB400793D0D1012A10D1009708F1FF333A463A
:404040000A992046D4F8A850A8473246E16E2046FFF744FD079E3246CCE7079ACAE7002E77D000973A46D4F8A8500C9B0A992046A847324665E0059B9C681D9B002B68D093
:40408000384B1B681B7C13F003030FD0022B60D1DDF818A0039A00255244D4F86C80DDF86CB0CDF81CA02B460A9224E01B9D039B1B9A5B1B1344002B4BDD15F8013B1D9AD2
:4040C000204632F82310FFF7FFFCF0E71BB9D4F86C80DDF81CA01D9B013553F8293008F1020828F8023C0123079A0132079207990A9A914219D01BF8019BB9F1000FE5D176
:40410000012B10D1079B0097013B3A4651462046D4F8A860B0472A46E16E2046FFF7DEFC4D464B46E0E74B46DEE70D9B069A13447DB13A4651460097D4F8A8602046B047D3
:404140002A46E16E204602E0039A1B990998FFF7C5FC1B9B1A9A013713441B93A6E50FB0BDE8F08FE488FF1F10B50446FFF7B2FBA468104B0821C4F8EC300F4B2046C4F85A
:40418000F0300E4BC4F8F4300D4BC4F8F8300D4BC4F8A0300C4BC4F8A430D4F8CC30C4F80431D4F8943098471023A363074B636410BD00BF413C00003D3B00002338000049
:4041C0009B3700002B3B0000353B0000B89C00002DE9F04104460E461546D0F88C302A219847E16AD4F8903031442046C1F30F219847E16AB7B23944D4F890302046C9B2C2
:404200009847E16AD4F8903031442046C1F30F219847E16AD4F8903039442046C9B29847D4F88C3020462B219847216BD4F8903029442046C1F30F219847216BAEB23144EE
:40424000D4F890302046C9B29847216BD4F8903029442046C1F30F219847216BD4F8903031442046C9B29847D4F88C302046BDE8F0412C2118472DE9F041044688461F46C3
:404280001646D0F88C302A21069D9847E16AD4F8903041442046C1F30F219847E16AD4F8903041442046C9B29847E16AD4F8903039442046C1F30F219847E16AD4F890305C
:4042C00039442046C9B29847D4F88C3020462B219847216BD4F8903031442046C1F30F219847216BD4F8903031442046C9B29847216BD4F8903029442046C1F30F219847B7
:40430000216BD4F8903029442046C9B29847D4F88C302046BDE8F0412C21184713B504466B460D4A1068516803C3D4F88C302046362198472046636B02AAA18C134413F824
:40434000083C21F0E0011943D4F8903089B202B0BDE81040184700BF1C99000013B50446D0F814312E209847216AD4F83031684603319847236A0DEB03021DF8033050780B
:40438000DB088008DB0243EA4013907843EAD00002B010BD1FB50446D0F834312E209847216AD4F85031684602319847226A0DEB42035B88C3F3C4005B1103F4FC63034373
:4043C0003DF81200000200F47840184304B010BD70B505460C46D0F81431080A9847D5F81431E0B2BDE870401847D0F8343108461847D0F81831C8B21847D0F83831084691
:4044000018470000082902D0102905D07047064BC0F88C30054B03E0054BC0F88C30054BC0F89030704700BFD1430000F3430000EB430000FB430000F0B585B00A9F856835
:40444000BC1A581A0097013400FB0444D5F8A87028460B9EB847D5F814312E209847D5F83031296A02A89847D5F83031032102A898479DF80930013C4FEA93029DF80830E0
:404480004FEAD3034FEAC32343EA42139DF80A2043EAD20326F8023BE6D105B0F0BDF0B587B00C9F8568BC1A581A0097013400FB0444D5F8A87028460D9EB847D5F834311D
:4044C0002E209847D5F85031296A02A89847D5F85031022102A89847BDF80A30013CC3F3C4024FEA631303F4FC6343EA0203BDF808204FEA022222F4FF6243EA020326F84B
:40450000023BE4D107B0F0BD10B50446FFF7E2F9A368114A0021C3F8AC20104AC3F8BC10C3F8A8200E4AC3F8D010C3F8B0200D4AC3F8B8200C4A10685268C3F8B400C3F8B9
:40454000C820DA8C094822F00302DA84084AC3F8CC00C3F8942010BDD1410000774200001D4300005D430000F488FF1F394400000544000070B5084B1B681A7C82EA0001E9
:40458000490705D59C6BD96B25680E6826600D601874104670BD00BFE488FF1F014B1B689B681847FC88FF1F0A46154B30B41B680446B3F90A10914220DCB3F90E108A42D9
:4045C0001CDCB3F90810814218DCB3F90C10884214DC197C587C11F0010F0A4951F8200004D0C368214630BCDB691847C168DB6B8D691B682146AC4630BC604730BC704724
:40460000E488FF1F74ADFF1F114B30B41C680D46B4F90A308B4219DCB4F90E30994215DCB4F90810B4F90C308142B8BF01469342A8BF1346994209DC607C064A52F8200020
:40464000C26894682A46A44630BC604730BC7047E488FF1F74ADFF1F124B30B41C68B4F9083083421BDCB4F90C30984217DCB4F90A309942B8BF1946B4F90E309342A8BFE0
:40468000134699420BDC084A647C52F82440E268D5680A46AC460146204630BC604730BC704700BFE488FF1F74ADFF1F73B5134C2468B4F90850B4F90C608542B8BF054611
:4046C0009642A8BF1646AE4215DBB4F90A208A42B8BF0A46B4F90E108B42A8BF0B469A4209DC607C064951F82000C16800930C6933462946A04702B070BD00BFE488FF1F08
:4047000074ADFF1F2DE9F04F8FB0189DDFF8C8E10295199DDEF800E008951B9D079003950C4617460193DDF868A01C9EDDF874B01E9DBEF1000F02D0DEF8004054E0029BE5
:40474000089A1343012B54D1614B1868B0F90A20531A002B0ADD0199C3EB010EBEF1000F40F3B280039901FB036602E00A46DDF804E0019B1C44B0F90E30013CE41A002CC2
:4047800005DDC4EB0E0EBEF1000F40F39D80079BB0F90C103B44013B5B1A002BC8BFFF1A079B591BB0F90830994209DA5B1A1D44FF1A23F0070306EBE506194405F00705E1
:4047C000002F40F38180407C424B039C53F82000C368CDF874B01C951B961A94CDF864A0CDF860E05C683B46A4460FB0BDE8F04F60477546CAF108030B93029BDFF8D090A5
:40480000013BCDF814E00D93059B019A93425BDA089BE3180993013B0A93D9F800300A99B3F90A208A4248DCB3F90E309C4244DC079B4FF0000806960093CDF81080049B2D
:40484000BB423ADAB8F1000F05D1069B4FF008081D78013306930B9BCAEB080845FA03F313F0FF0105FA0AF5EDB204D1D9F80020127C920719D4D9F80020D26B10680C90EB
:40488000BBF1000F02D05BF8213000E0DBB2136000990D9A0A9B0A4400982146FFF706FFD9F800300C9ADB6B1A60049B029A01330493009B13440093C1E7059B099C0133A7
:4048C0000593039B1E449FE70FB0BDE8F08F00BFE488FF1F74ADFF1F30ADFF1F2DE9F04F8FB0189CDFF814E20294199C1D9E0894DEF800E01B9C0546039400919046019333
:404900001A9F1C9C0496BEF1000F02D0DEF800407AE0029B089A1343012B7AD1754B01991868009BB0F90A20D31A002B07DDC91A002940F3DB80039E06FB034400E0009A1F
:404940009DE848001E44B0F90E30013EF61A002E03DD891B002940F3C98005EB0803B0F90C60013B9B1BB0F90860002BC8BFC3EB0808B54231DA731B082FC3EB080827D07C
:404980000DDC022F14D0042F1AD0012F26D123F0070604EBE304354403F007031EE0182F18D0202F16D0102F18D104EB430413E023F0030604EBA304354403F003030DE085
:4049C00023F0010604EB6304354403F0010305E01C4401E004EB830435460023B8F1000F40F38480467C444850F82600049ED0F80CE01C93039B18911A93294643461D964E
:404A00001B941997DEF80440A4460FB0BDE8F04F6047F346C7F108030B93029BDFF8D4A0013BCDF818E00D93069B019A93425DDA009A089B13440993013B0A93DAF800305B
:404A40000A99B3F90A208A4248DCB3F90E30009A9A4243DC2E464FF000090794CDF81490059B43453ADAB9F1000F06D1079B4FF0080993F800B0013307930B9B0BFA07F223
:404A80004BFA03F313F0FF015FFA82FBC7EB090904D1DAF80020127C920717D4DAF80020D26B10680C90049810B150F8213000E0DBB213600D9A0A9B324400993046FFF765
:404AC000F5FDDAF800300C9ADB6B1A60059B029A01330593334613441E46C1E7069B01330693039B1C44099B00939DE70FB0BDE8F08F00BFE488FF1F74ADFF1F30ADFF1FEB
:404B0000044B1968044B4A7C083153F82200C3681B6B1847E488FF1F74ADFF1F07B5FFF7EFFF00F0B1F8002839D1FDF717FE019038B900F0FFF81B4B1A681B4B9A420CD12D
:404B40002AE0C3680C215B6A01A89847034628B3019898470028ECD021E00020FDF7FEFD0190C8B1002001F005FC0420FFF716FD43F6FF7300211A460846FFF797FD002089
:404B8000FFF70CFD019B0E21DB6801A85B6A9847034608B101989847002000E0012003B05DF804FBB8AAFF1F785634FF044B1B685A7C044B53F822301B691B68184700BFBF
:404BC000E488FF1F74ADFF1F044B1B685A7C044B53F822301B695B68184700BFE488FF1F74ADFF1F044B1B681A7C52074CBF9B6BDB6B1860704700BFE488FF1F08B5064B8C
:404C00001B68196B814206D01863FFF7CFFFBDE80840FFF7E7BF08BDE488FF1F044B1B681A7C52074CBFDB6B9B6B1860704700BFE488FF1F08B5064B1B68596B814206D03F
:404C40005863FFF7B3FFBDE80840FFF7E7BF08BDE488FF1F014B1B685B681847FC88FF1F014B1B681B681847FC88FF1F10B5044C2068FDF7A9F8034A00232360136010BDAE
:404C800080ADFF1F80ABFF1F38B50A4D2C6864B9094B18688000FDF771F9286038B10748074B40F8043FFDF7C3FC002038BD012038BD00BF80ADFF1F0089FF1F80ABFF1F54
:404CC0006D4C00002DE9F843044618B387681FB3144D286820B32268B2F5807F1FDC124B00261B689A42A8BF1A469046464509DA57F82600D5F80090FFF758FF49F8260072
:404D00000136F3E7094B1B680BB1204698472868BDE8F883BDE8F8833846BDE8F8830020BDE8F88380ADFF1F0089FF1F80ABFF1FFFF7C8BF2DE9F74F00F003F91C4E8046AC
:404D4000B146DFF874A0002444452DDA2046FDF705FD38B33368204693F811B05C7400F047F8082804DDD9F8003083F811B019E05AF824301A690F4B9A42F4D0204600F04A
:404D80003AF8034600259D42EDDAEFB238460193FFF71AFF39460246204600F0FBF80135019BF0E70134CFE703B0BDE8F08F00BFE488FF1FA09C000074ADFF1F10B50C4695
:404DC000FDF7CCFC28B1C3682146BDE810409B6A184710BD002801DCFFF7F0BF00207047014608B50020FFF7E9FF20EAE07008BD0821FFF7EFBF0921FFF7ECBF024B1B685C
:404E0000587CFFF7F8BF00BFE488FF1F034B082153F82000C3689B6A184700BF74ADFF1F10B5FDF79BFC28B1BDE81040C3680221DB6A184710BD0000024B1B68587CFFF7C2
:404E4000EFBF00BFE488FF1F024B53F820301B695868704774ADFF1F024B53F820301B691868704774ADFF1F0120FFF7B9BF0220FFF7B6BF014B83E8030070478CABFF1F55
:404E8000014B1868704700BF8CABFF1F014B5868704700BF8CABFF1F00283BD030F0010329D030F0030328D030F0070327D030F00F0326D030F01F0325D030F0FF0324D080
:404EC00020F4FF7323F001030BB320F47F6323F00F03E3B120F4FF4323F07F03BBB1030C1B04A3B1830C9B049BB110F07F4F0CBF18202020704701207047022070470320B9
:404F00007047042070470520704708207047102070471220704708B5FFF7BEFF01280FD0831E062B09D9A0F10903072B07D911380F288CBF0020202008BD082008BD10206C
:404F400008BD08B50020FDF709FC003018BF012008BD00000D4B10B51C461A68517C0C4A52F8210040B1C36813B11B68042B01D00068F7E7FDF728FC23680022DA6503F179
:404F800008025A61BDE81040FFF7BABDE488FF1F74ADFF1F37B50C461546FDF7DFFB019008B901200CE0C36810215B6A01A8984703460028F5D001982A46214698470020ED
:404FC00003B030BD37B50C461546FDF7C7FB019008B901200CE0C3680B215B6A01A8984703460028F5D001982A4621469847002003B030BD37B50C461546FDF7AFFB0190B2
:4050000008B901200CE0C3680A215B6A01A8984703460028F5D001982A4621469847002003B030BD10B5074C2368186BFFF7BEFDFFF7D8FD2368586BFFF7B8FDBDE810402A
:40504000FFF7ECBDE488FF1F144B70B500241C60134B14481C60144B144D1C60144B04701C60144B44601C60134B84601C60134B21461C6018222B680C309847104B2146FA
:405080001C60104B08221C600F482B6898472B682146BDE8704008220C481847B0ADFF1F98ADFF1F94ABFF1FB8ADFF1F0889FF1FC0ADFF1F88ADFF1FA8ADFF1FB4ADFF1F41
:4050C00094ADFF1F8CADFF1FCCADFF1FC4ADFF1FF0B507460C46164685B002AD002F48D03846FCF785FE876A0146BB0701903AD526B13246284600F0E8FE02E003C885E8CE
:40510000030029462046FDF7CFF960B317F0010F019B1CD13EB1B3F90220B6F902309342B8BF134601E0B3F90230B4F902209342B4F9062005DDBDF90A309A4213DB013BD7
:4051400003E0BDF90E309A420DDDE3800BE0DF694FB138462A462146FFF7BAFF3846FCF73DFE076AF4E7019B01A81F6AFCF74EFEB4E705B0F0BD2DE9FF4106460F46904629
:40518000002502AC002E35D03046FCF731FE866A0146B207019027D5B8F1000F04D04246204600F092FE02E003C884E8030021463846FDF779F9B8B1F30705D4BDF80C3046
:4051C000012501333B800FE0019BDE6966B1224639463046FFF7CFFF0028304618BF0125FCF7FCFD066AF1E7019B01A81E6AFCF70DFEC7E7284604B0BDE8F081F0B5054620
:405200000E46174685B002AC7DB32846FCF7F0FD856A0146AA07019021D527B13A46204600F053FE02E003C884E8030021463046FDF73AF998B1EB0704D4BDF80830013B93
:40524000B3800CE0019BDD694DB1284622463146FFF7D4FF2846FCF7C1FD056AF4E7019B01A81D6AFCF7D2FDCEE705B0F0BD000073B506460D462846FCF7BAFD836A0146F8
:4052800013F00204019004D101A8FCF7BFFD204612E0304600F0FCFD019B01A89C693CB9FCF7B4FD054B1868431B5842584103E0FCF7ACFD2546DEE702B070BD8CADFF1F47
:4052C0002DE9FF4106460C4600294CD0FCF790FD00238461019003622046FCF789FDC76904AC44F8080D2FB9C66101A8FCF78EFD204636E0019B38469D6AFCF779FD0DF1AD
:40530000100805F0080548F8040D75B9836A1A070BD5019B01A81F62029BDE61FCF776FD2046FCF773FD40461BE02046FCF76EFD4046FCF76BFD3846FCF750FD0390039B00
:405340001C6A0CB91E620BE02046FCF747FD002DF4D1836A1B07F1D5039B1E62019B1C6201A8FCF753FD04B0BDE8F08103460846B3F90220B3F90010FDF77EB8114B30B599
:405380001C6885B0626C0546BAB11068516802AB03C30D4B186800B9A06CFCF729FD04AC02A944F80C0DFFF7E1FF2046FCF72EFD02A8294600F06CFD02A802F09BF905B0F5
:4053C00030BD00BFE488FF1F88ADFF1F1FB50E4B1B6893F854200AB10C4811E0986CFCF707FD02AC019003C884E8030001A8FCF70DFD074B196811B12046FFF739FF2046CC
:40540000FFF7BCFF04B010BDE488FF1FA8ABFF1F88ADFF1F13B5044600B3FCF7E9FC836A01909B0717D5406A40B10D4B1B689C4204D001F027F8019B00225A62204600F03B
:4054400045FC04463CB12046FFF7E4FF2046FCF7C5FC046AF6E701A8FCF7D8FC02B010BDBCADFF1FB0F90020B0F904309A4208DCB0F90230B0F906008342CCBF0020012019
:4054800070470020704700007FB50D4604461646FCF7A4FC816A01908B0733D52846FFF7E1FF78B340F601030B40012B2AD02046FCF79EFC02AC024601902946204600F02F
:4054C00004FD2046FFF7CEFFC8B144F22001019B9A6A03F10805114029B1224629462846FCF79FFF0BE0324394E8030085E803009A62054A138801331380FDF73DFF01A83B
:40550000FCF784FC04B070BD9CADFF1F2022FFF7BBBFF0B50F4685B01546064648B3FCF767FC836A04AC9B07024644F80C0D03D42046FCF76BFC1CE0394602A800F0C5FC8E
:405540000028F5D02046FCF761FC2A4602A93046FFF79AFF304600F0B9FB04464CB120462A4602A9FFF7D5FF2046FCF737FC046AF4E705B0F0BD2DE9FF41804617461D46A9
:405580000C4681B30846FCF733FC866A0246B307019025D5414602A800F097FC00B340F601033340012B07D101992B460A6A02A88969FFF7E0FF04E02A4602A92046FFF715
:4055C00063FF019BDC695CB1BC4209D020462A4602A9FFF79EFF2046FCF700FC046AF2E701A8FCF713FC04B0BDE8F0812023FFF7C2BF1FB504AB43F8101D1946019000F0DA
:4056000027FB05B05DF804FB00230B8002884B8083889B1A8B804288C3889B1ACB807047F0B50F4687B00546002833D0FCF7E0FB866A0190B2072AD503C804ACF30384E81A
:40564000030002D52846FFF7E5FE5FB13868796802AB03C302A90198FFF788FE02A9204600F016FC29462046FFF702FE78B140F601033340012B06D1019B20461A6A996906
:40568000FFF7B4FF03E021462846FFF73FFF01A8FCF7BCFB07B0F0BD0021FFF7C1BF00000B4B70B51A680546966C1C4608B9094B1D689564FFF724FA2846FCF78FFB23683E
:4056C000B0F90020DA64B0F9022030461A6570BDE488FF1FA0ADFF1F2DE9F74FDDF830A098464C4B05460E461746D3F80090BAF1000F24D1484B1B8833B3484B1B685A1C9D
:40570000012A21D99A465046FCF772FBB0F90010B0F9022001900D4416441FB9B0F904305F1A0137B8F1000F05D1B0F90630C2EB030808F1010801A8FCF768FB04E0BAF193
:40574000FF3FE0D14FF0000A0F982C30FCF7E4FC0446002859D0304A0D9B0DF1080B49EA0309138801331380FCF742FB0E9B826A03612B4B4BF8080D09EA03030580468071
:405780003D4446441343013D013E83628580C6805846FCF73BFB234B186848B1FCF71EFB05462046FCF71AFB6B6943616C6100E01C6051462046FFF783FD19F0200F02D04A
:4057C0002046FFF76DFF19F0010F1FBF164A13680133136019F0400F02D0204600F086FA19F0020F0DD02046FCF702FB836A009043F0020383625846FCF708FB2046FFF791
:405800004BFF01212046FFF7F4FE204603B0BDE8F08F00BFA8ADFF1F84ADFF1F8CADFF1F9F3F3F00A0ADFF1FC0ADFF1F1FB5089C0394079C0294069C019400240094FFF759
:405840004BFF04B010BD00002DE9FF415D4F3B6893F85400002800F0B1805B4A136A1446012B03DD013B13620020A7E0D36902AD013302F1140696E80300D36185E803005F
:4058800023B99389ADF80830D38910E0138BD28A0133ADF80A20B4F910201BB29A42ADF8083006DAA389ADF80830638B0133ADF80A30BDF90A20B4F91230DFF80C819A426E
:4058C00004DD236A0020013B236277E03B68986CFCF78EFABDF90820B8F90C3001909A421CD1B8F81230ADF80E30B8F81030ADF80C30344B1B689A6C5AB11046FCF76EFA51
:40590000804600222946006AFFF7E2FBD8F81820F2E7019B2946D869FFF7DAFBBDF80830ADF80C303B689A6C6AB11046FCF756FA002280462946006AFFF71DFC0028EDD1FA
:40594000D8F81820F0E7019B2946D869FFF713FC0028E3D1B4F91030BDF90820ADF80C309A4207DD95E8030086E8030001A8FCF74DFA97E73B689A6C52B11046FCF72EFA40
:40598000074600222946006AFFF738FCBA69F3E704AF57F80C3D2946D869FFF72FFC3846FCF734FA44F62063E2699A4289DC95E8030086E80300FFF709FD012004B0BDE80D
:4059C000F08100BFE488FF1F94ABFF1F2DE9F041394E86B03268804692F8543013B9FFF7F5FC64E0354F3B6A3D460133012B3B625DDC906CFCF7FCF94FF0FF33FB61304B19
:405A000000901B7813B102AB083004E0836A13F002040CD002AB03C802AC83E80300B8F1000F0CD04146204600F032FA07E03B6A6846013B3B62FCF7E9F9204638E03368B2
:405A4000204F5A6CC2B1009B10685168019304AB03C33B6833B101A8FCF7D8F93868FCF7C7F9019004A90198FFF780FC204604A900F00EFA01A800E06846FCF7C7F9396883
:405A800019B12046FFF7F4FB28B133682046996CFFF7EEFB18B92B6A013B2B6208E00A4B94E8030083E80300FFF7CEFE00E0012006B0BDE8F08100BFE488FF1F94ABFF1F85
:405AC000A5ADFF1F88ADFF1FA0ABFF1F024B01221B6883F854207047E488FF1F10B5044623684068172B10D007DC0E2B0FD0142B14D1E16800F0D2F810E0222B0CD0282B65
:405B00000CD1BDE81040FFF7C7BDE06010BD2146BDE8104000F02DB9024B00E00023E36010BD00BF785634FF036810B50E2B044602D00F2B09D011E0C3685A68012A12D136
:405B4000BDE810401868FDF7DFBB074B1868074B984203D0FCF7CEFCFCF75AFD2046BDE81040FFF7BBBF10BDACADFF1F785634FF30B51D4C85B02178002932D11B4B08463E
:405B800019601B4BA1601B681A4D59641A4B19801A4B198004230293194B01930223009343F6FF731A46FFF741FE164A164B28601A60FFF771FD154800F068F8144800F096
:405BC00065F82868FFF76CFDFFF780FF204601232370104B40F8243F05B0BDE83040FCF727BD05B030BD00BF94ABFF1FA0ADFF1FE488FF1F8CADFF1F9CADFF1F84ADFF1F70
:405C0000295B0000785634FFACADFF1FCCADFF1FC4ADFF1F4950000008B500F05FF818B1FCF7DCF8C06908BD08BD38B50546FFF7F3FF044654B1AC4207D02046FCF7CEF80F
:405C4000036A9D4202D01C46F4E70024204638BD70B50D4C064623680D46132B12DCFCF7BDF802696E6042B1236828460133236090472368013B236070BD2846BDE87040E1
:405C8000FFF72CBF70BD00BFC4ABFF1F024B1A6802601860704700BFB0ADFF1F37B50D4658B151B1FCF7A4F802AC44F8040D2946FFF7AAFC2046FCF7A9F803B030BD000077
:405CC000014B1868704700BF8CADFF1F08B5034610B1FCF783F8C369184608BD08B5034610B1FCF77BF88369184608BD2DE9F043044687B0002839D0FCF77AF8034604ADF1
:405D0000019003C885E8030001A81E6AD3F82890FCF77CF82046FFF788FF074630B32046FFF7DCFF19F0020F804604D0014632462846FFF75BFC2046FCF75AF80190404642
:405D4000FCF756F803903846FCF752F8039B019AD96906620290116201A8DC61FCF756F803A8FCF753F802A8FCF750F807B0BDE8F08338B505460C4641B1FFF7AFFF28B1EF
:405D8000A5602146BDE83840FFF762BF38BD0000044B10B51B685C6C5864FFF717FB204610BD00BFE488FF1FF7B5061E0C4662DC324D6B6803B19847012C04D0022C20D04B
:405DC000002C58D133E005EB8605AF68AFB93046FCF7C4FC019000284DD0C3680D215B6A01A898470346002845D0214601989847AB6838460133AB603EE0781CA860204647
:405E00003AE03046FCF7AAFC0190002833D0C3680D215B6A01A89847044600282BD02B6803B1984702210198A047002024E0B4002B199B68012B01D0012015E03046FCF706
:405E40008DFC01900028F7D0C3680D215B6A01A8984706460028EFD0084B1B6803B1984700210198B04700202544AB68002B18BF013BAB6000E0012003B0F0BDC8ABFF1F4F
:405E8000024B01461B68587CFFF78EBFE488FF1FB1F90030B0F900209A42B8BF0380B0F90220B1F902309A42B8BF4380B0F90420B1F904309A42C8BF8380B0F90620B1F96A
:405EC00006309A42C8BFC380704770B5B1F90030B2F9005006469D42B8BF1D46B1F902300580B2F90200B1F904408342B8BF0346B2F9040073808442A8BF0446B2F90600C5
:405F0000B1F90620B4808242A8BF0246A542F28004DC9342CCBF0020012070BD002070BD70B5840742BF02F1FF3201800230540824D0032C234601EB014502D800EB8303A9
:405F400017E0264600F11003043E032E43F8105C43F80C5C43F8085C43F8045C03F11003F2DC043CA3085E1C00EB0610A4EB8303E4E7984202D040F8045BFAE7D30748BFA3
:405F8000018070BD2DE9F74F00269046374634463546B2460DF1080BDFF87C904BF8040D00915846FDF7B8F9002E08BF064608B10A280BD12C46002C08BF2C46B8F1000FBE
:405FC00026D0C7EB0A07C8F8007021E020281DD0202E0ED0D9F80070D9F8041000228A4209DA37F812E0864501D16C1C03E00132F5E72C46002600F09FF8009B82449A45C8
:40600000074601DD002DD6D10135CAE72C46F2E7204603B0BDE8F08FDCABFF1F2DE9F34100248846264602AD45F8040D2846FDF773F9074648B100F07FF806440CB146459B
:4060400003DC0A2F01D00134F0E7204602B0BDE8F0810000012A10B405D0022A09D1074B10BC5B681847054A14681A46234610BC184747F6FF7110BC00F0BEB80C89FF1FA2
:406080000023FFF7E7BFF0B585B003AB17460E460190FFF7DFFF014604460198FDF750F9019B04AD184445F80C0D2846FDF734F90A2801D1013412E0012F10D120280ED12B
:4060C00000F03AF80746039B9E4208DB3B4428460393FDF721F9202804F10104F3D0204605B0F0BD10B50446FFF7CDFF01462046BDE81040FDF724B90A4B1A68938D03F044
:406100000C03082B07D00C2B05D0042B07D1D369187E01387047D369187E400870470020704700BFE488FF1F024B1B68DB69587E704700BFE488FF1F024B00211B68DB6961
:406140005B681847E488FF1F024B1B68DB695B68184700BFE488FF1F7047000073B5154602AB214A43F8081D19460190126890471E4C01902368586940B90120FFF780FE2C
:406180002268D3695B693BB9194D22E02946FCF78BF90028F1D124E0164C9B68216841B1B2F9225001980099984723682846984714E000990198984710E001A8FDF7ACF809
:4061C00023680646DB691B6898472B680BB130469847009B013B002B0093EEDA0020FFF74FFE02B070BD00BF1489FF1FE488FF1F50ADFF1F44ADFF1F37B50D460190044697
:4062000088B10A4B1B68DB695C6954B1646844B1A04709E001A8FDF77FF820B10A2802D00134AC42F6DB204603B030BDE488FF1F13B5002402A941F8044DFFF785FF019B0A
:406240009842ACBF2046181A02B010BD37B5154A02AB43F8081D01901268194690470190E8B1114B1B68DB695C690CB124680CB9254602E00099A04711E0009B013B002B49
:40628000009307DB01A8FDF747F80446FFF754FF0544F2E72046FFF7CBFF2844FFE703B030BD00BF1489FF1FE488FF1F274BF7B51B6805460E4663B10020FFF787FB0028A8
:4062C00041D06A4631462846FFF748FFFFF7BCFAF5E76B46106851681D4C03C32268BDF80030B2F84C70B2F850003B44BDF80210BDF80420ADF80030BDF8063001440344E8
:406300003A446846ADF80210ADF80420ADF80630FFF75CFB236840B9D96C5A8C521A5A84196D9A8C521A9A840DE0BDF8002031465A84BDF8022028469A846A46FFF70EFF2D
:40634000FFF782FAE6E703B0F0BD00BF30ADFF1FE488FF1F064B1B681A7E012A02D11B6E5B681847013A022392FBF3F2FBF7B4BFE488FF1F70B5074C064623685D7C30B953
:40638000FCF7ECF918B123685E74FCF7AAF8284670BD00BFE488FF1F08B5FEF72FFDB0F5807F10D07F2810D83F2810D81F2810D80F2810D8072810D8032810D8012894BF32
:4063C000002001200CE008200AE0072008E0062006E0052004E0042002E0032000E00220012303FA00F0013808BD38B50446FEF705FD0546FEF720FDA54203D918B150F8A1
:40640000240038BD002038BD2DE9F8438146FEF7F5FC0746FEF710FD0646E0B1002056F820304B4517D001308742F8DC002425466FF07F4856F825104846FBF7CBFF8045BA
:4064400088BF2C4605F1010588BF8046AF42F1DC2046BDE8F883BDE8F88337B5044670B1FBF7C6FC036802AD1B6945F8040D9B689847FEF750FD04462846FBF7C7FC204608
:4064800003B030BD37B50446D0B10E4B1B68DB6D984201D1FCF725F82046FBF7A9FC0190406908B100F018FD02AD55F8043D1868FCF764F92846FBF7A9FC2046FBF7C6FC84
:4064C00003B030BDE488FF1F0129024818BF0020704700BFB89C00001629024818BF0020704700BFA96F0000006810B1C3681B6A1847704737B580680D46FBF779FC02466A
:40650000B2F904301489B2F906102B801C44538902A80B44013B013C40F8042D6980AC80EB80FBF773FC03B030BD00000E4B73B51B680646D86D0D46FBF75AFCB0F90610EC
:40654000C468691AB0F9045002AB761B7600183604FB016543F8040D44191846FBF756FC204602B070BD00BFE488FF1F08B508461146FFF7DBFF008808BD0000144BF7B5A5
:406580001B680746D86D16460D46FBF731FC314600902846FFF7CAFF3B6904469B68984723885840009B2080586960B1FBF720FC836802AC44F8040D1B6832462946984767
:4065C0002046FBF723FC6846FBF720FC03B0F0BDE488FF1F73B51C46104B0D461B681646D86DFBF705FC314600902846FFF79EFF009B0480586960B1FBF7FAFB836802ACB6
:4066000044F8040D1B683246294698472046FBF7FDFB6846FBF7FAFB02B070BDE488FF1F2DE9F7432C4C1E4623688046D86D0F461546FBF7DDFB00904069A14608B1FBF76F
:40664000D7FB019029463846FFF770FFD9F8003004461A7CD2071FD5D8F810309B6898471FFA80F8019820B183682A461B68394698472388013588EA03032380009BB54200
:40668000DB681C44EEDD6846FBF7C0FB019B03B301A8FBF7BBFB1CE0DB6B009AD3F80090019BD2F80C8063B101982A46836839461B6801359847AE42A4F800904444F3DAB5
:4066C000E1E7751B0135013DA4F800904444FAD1D9E703B0BDE8F083E488FF1F2DE9F04F2A4F1D463B681446DA6B87B012688346D86D89460292FBF77BFB214604904846B4
:40670000FFF714FF049A0646D3685069C9EB0505039305F1010A88B1FBF76AFB109B0DF118081B1B013348F8040D224600934946534600F0E5FB4046FBF768FBBDF80880FE
:406740006D00109B9C421ADC3B681B7CDB070DD5DBF810309B689847B31E80B2711933F8022F42408B421A80F9D104E0524641463046FFF7D5FB039B01341E44E1E704A8B6
:40678000FBF744FB07B0BDE8F08F00BFE488FF1F07B50092FFF7A2FF03B05DF804FB00002DE9F04F904D91B002932B680A90D86D0E4605921D9CFBF71BFB0E90406908B172
:4067C000FBF716FB0F9010A850F8083DDB680793FBF71CFB1E9B0F9806EB030B50B12B681B7C990706D11A9B059A00935946029B00F086FB05995846FFF798FE1B9B05466E
:40680000102B22D1029BDFF8E4914FEA430800261A9B9E4280F24A838CB185B10F9F424621462846D9F80030984747B1BB68059AD3F804A03244029B59463846D0471C9B3E
:4068400001361C44079B1D44E2E71B9B172B44DD6FF0030303FB0BF306936FF0010303FB0BF30493029B4FF000085B4408931A9B984580F21B83059B03EB080934B91C9BA9
:4068800008F101081C44079B1D44F0E7002DF6D00F9F37B1BB684A465E685946029B3846B0475E46069B04EB030A049BEB1803930A9B5AF826001B691B689847039B23F8B4
:4068C00016002FB1BB684A461B68314638469847089B01369E42EBD1D1E71B9B082B40F08780029B059E5B0006936FF0010303FB0BF30393029BDFF8F0905B44013C0493BA
:40690000059B1A9AF31A9A4204F1010140F3CE821F9B002B36D0D9F800301B7C13F0030309D0022B5AD1039BDDF83C80EB180893A2465F4621E0069B2246E9182B4612F803
:40694000010F1F9F57F8200023F8020B8B42F6D144E01F9A52F82330089A22F81730B8F1000F06D0D8F8083032461B68394640469847049B01379F4230D01AF8013F002BF7
:40698000F7D0E6E7D9F800301B7C13F0030309D0022B23D1039BDDF83C80EB180893A2465F4616E0114B029A28461B68984715E0089A22F81730B8F1000F06D0D8F8083002
:4069C00032461B68394640469847049B01379F4204D01AF8013F002BF7D0E9E7079B01361D441C9B1C448BE7E488FF1F0489FF1FAF4B1F9A002A08BF1A461E9B1F925B0057
:406A00000B931E9B9B000C93631C0393831C0693059B0493069B059A9C1E039B03F1FF3A049B9B1A1A9A9A4240F340821B9B022B00F0C980042B00F06481012B40F02A827B
:406A40009C4B1B68D86DFBF7D3F91E9B9A4AC3F10805039B0E9013F8013CDDF83C90D65C1E9B029F1E41934B1B681B7C03F00303022B1FD0032B59D0012B57D0BD4228BF9E
:406A80003D4622462B467F1B1F9806F0010150F82110013B22F8021B4FEA5606F4D104EB4504002F00F08B801AF8013F824A0825D65CE3E7D8461F9B9B880893BD4228BFC6
:406AC0003D467F1BB9F1000F24D01EB904EB4504A84423E0F20709D5D9F80830049A1B68414648469847BDF820302380013D08F1010804F1020411D07608E6E7F30748BFC9
:406B0000BDF8203004F1020448BF24F8023C013D04D07608002EF1D104EB4504002F4ED01AF8013F644A0825D65CC7E70A9BD8461B699B68984783B20993039B0893BD42B0
:406B400028BF3D467F1BB9F1000F1CD0A24608EB05030D93F0070CD5D9F80830049A1B68414648469847BAF80030099A5340AAF800300D9B08F1010898450AF1020A4FEA42
:406B80005606E7D10FE02A462346F10744BF1988099803F1020344BF414023F8021C013A4FEA5606F1D104EB450447B1089B424A1B780825D65C089B01330893BFE70EA855
:406BC000FBF724F966E11E9BC3F10405039BEDB213F8016C0B9B9E40364BF6B21B681B7C03F00303012B09D00AD3022B40F052810F9BDDF8088008935F4636E0029B79E0EF
:406C0000029B9D42C8BFDDB22A4621465B1B1F9FB00957F82000013AB60012F0FF0221F8020BF6B2F3D1013DEDB2013504EB4504002B00F02F811AF8016F0425E1E716F07A
:406C4000C00F24D10D9B09F10109B6009945F6B2F5D16B1C013704EB43042F44B8F1000F00F018811AF8016F04254545C8BF5FFA88F5C5EB0808013DEDB27B1C2B440D9324
:406C80006FF0010303FB0743B9460993D7E71F9AB30952F82330099A22F81930089B002BD0D09B68049A1B68494608989847C9E7EC9C0000E488FF1F2C9D000016F0C00FB8
:406CC00018BF088802F1FF321CBF80F0FF000880B60012F0FF0201F10201F6B2EED1013DEDB2013504EB4504002B00F0D3801AF8016F04259D42C8BFDDB25B1B2A4621467C
:406D0000DCE7039B0C9A13F8013C93406B4ADDB21268127C02F00302012A00F0958002D3022A35D0B6E01E9B5BB11F9B2D0953F82530039A2380029B069C013B15789246AD
:406D400000E0029B012B1ADD5910221D03F001030AEB01001F9F2E0905F00F0557F8266057F8255022F8046C22F8025C1AF8015F3E46824502F10402ECD104EB8104002B33
:406D800000F088801F9B2D0953F82530238081E01E9A0F9EC2B113F0F00F0BD01F9B2D0953F8253023802EB1B368049A1B68594630469847029B069C03F1FF38039B0BF14C
:406DC00001071D789A460FE0DDF808805F460BE015F0F00F0CD115F00F0517D11AF8015F04340237A8F10208B8F1010FF0DC1AE01F9A2B0952F823302380002EEBD0B36822
:406E0000049A1B68394630469847E4E71F9B53F825306380002EE1D0B368049A1B68791C30469847DAE7B8F1000F33D02D0931D01F9B53F82530238066B3B368049A1B684B
:406E400039463046984725E01E9B029AC3F10203DBB29342C8BFD3B219462046D21A15F0C00F18BF068801F1FF311CBF86F0FF0606802D0111F0FF0100F10200EDB2EED155
:406E8000013BDBB2013304EB43041AB11AF8015F0223DEE7049B1C9A01330493039B13440393079A069B13440693B3E50F9B13B10FA8FAF7ABFF11B0BDE8F08FE488FF1FD4
:406EC000082904D0006820B1C3689B6A1847102070474FF0FF30704737B50546FAF788FF848902AB013C24B243F8040D84811846FAF78CFF14B92846FAF7A8FF03B030BD9F
:406F00002DE9F843054688469946089C1444AB68561C5F6841464B462846B847B4423246F5D1BDE8F8832DE9F84F81460D4616461F4614468846DDF828B0DDF82CA039F808
:406F4000020BD847D047013C48F8040BF7D11F2F06D83A4631462846BDE8F84F00F0E2BBBDE8F88F2DE9F84F80460D4616461F4689460446DDF828B0DDF82CA014F8010B8E
:406F8000D847D047331B18EB030F49F8040BF5D11F2F06D83A4631462846BDE8F84F00F0C1BBBDE8F88F00002DE9F04F9BB0089109920546002800F09983FAF719FF1AABEC
:406FC00043F81C0D44691846FAF720FF2846FFF744FA08280746A54E02DD002C00F0C98101230027284619930D931897FAF700FF0268B0F90A3012690E93536832680DF15B
:40700000680949F8140D0469D0F81480D0F80CA0B0F908B0507C0C93FDF7F8FE32680B90507CFDF711FF0A904846FAF7EFFE082C0A9A0D9B04D9102C8CBF0423022305E06A
:40704000012C03D118AB0D940A9301E00D930A970C9B934200F0DF803368587CFDF7FCFE0F904FEA8B00FBF753F81090002800F03D83284600F00DFC0546B8F1000F00F052
:40708000B9804046FAF7B4FE05EB0A0311930023DDF8249016900993119B099ACAEB03070E9B934240F3A28016980023179383680DF15C085B69099A414698478345054656
:4070C00028D11098FAF794FE0F9B082C01930C9B0146149000935A460B9B384602D9FFF722FF01E0FFF73EFF0A9B1AAD059355F8183D08980493002303930B9B5A4602939A
:407100000123019300934946FDF7E8FB2846FAF77DFE62E0012C02D04FF0010857E0002D5BD01798089E00F0070306930A9B2A460593082390FBF3F33B44049301230293AC
:407140000193009349463044CDF80CA0FDF7DAFA179B16981D44836817955B69099A414698470546DBE71098FAF742FE0F9B01461490019317980C9B0D9E082C00932A4640
:407180000B9B00FB067025D9FFF7CDFE0A9B17980593149B089E0493002303930B9B2A464946029330440123CDF80480CDF80080FDF794FB14A8FAF729FE179B16981D44F0
:4071C000836817955B69099A17A998470546002DC9D102E0FFF7C6FED8E7099B09F1010901330993119B5344119355E716A8FAF70DFE0EE00A9B0490059301230193009326
:40720000CDF80CA002940E9B5A4609990898FDF765FB109868E2284600F03BFB0746B8F1000F00F09A804046FAF7E2FD002516900E9BAB4240F38D80169800231793836876
